{
  "contractName": "BlindDate",
  "abi": [
    {
      "inputs": [],
      "stateMutability": "nonpayable",
      "type": "constructor"
    },
    {
      "anonymous": false,
      "inputs": [
        {
          "indexed": true,
          "internalType": "address",
          "name": "owner",
          "type": "address"
        },
        {
          "indexed": true,
          "internalType": "address",
          "name": "spender",
          "type": "address"
        },
        {
          "indexed": false,
          "internalType": "uint256",
          "name": "value",
          "type": "uint256"
        }
      ],
      "name": "Approval",
      "type": "event"
    },
    {
      "anonymous": false,
      "inputs": [
        {
          "indexed": true,
          "internalType": "address",
          "name": "from",
          "type": "address"
        },
        {
          "indexed": true,
          "internalType": "address",
          "name": "to",
          "type": "address"
        },
        {
          "indexed": false,
          "internalType": "uint256",
          "name": "value",
          "type": "uint256"
        }
      ],
      "name": "Transfer",
      "type": "event"
    },
    {
      "anonymous": false,
      "inputs": [
        {
          "components": [
            {
              "internalType": "uint256",
              "name": "id",
              "type": "uint256"
            },
            {
              "internalType": "enum BlindDateValues.DateStages",
              "name": "state",
              "type": "uint8"
            },
            {
              "internalType": "address[]",
              "name": "party",
              "type": "address[]"
            },
            {
              "internalType": "string[]",
              "name": "messagesList",
              "type": "string[]"
            },
            {
              "internalType": "address[]",
              "name": "messagesListSender",
              "type": "address[]"
            }
          ],
          "indexed": false,
          "internalType": "struct BlindDateValues.Date",
          "name": "date",
          "type": "tuple"
        }
      ],
      "name": "dateCreated",
      "type": "event"
    },
    {
      "anonymous": false,
      "inputs": [
        {
          "indexed": false,
          "internalType": "address",
          "name": "userAddress",
          "type": "address"
        }
      ],
      "name": "deactivatedAccount",
      "type": "event"
    },
    {
      "anonymous": false,
      "inputs": [
        {
          "indexed": false,
          "internalType": "address",
          "name": "userAddress",
          "type": "address"
        },
        {
          "indexed": false,
          "internalType": "uint256",
          "name": "count",
          "type": "uint256"
        }
      ],
      "name": "disputeSent",
      "type": "event"
    },
    {
      "anonymous": false,
      "inputs": [
        {
          "components": [
            {
              "internalType": "uint256",
              "name": "id",
              "type": "uint256"
            },
            {
              "internalType": "enum BlindDateValues.DateStages",
              "name": "state",
              "type": "uint8"
            },
            {
              "internalType": "address[]",
              "name": "party",
              "type": "address[]"
            },
            {
              "internalType": "string[]",
              "name": "messagesList",
              "type": "string[]"
            },
            {
              "internalType": "address[]",
              "name": "messagesListSender",
              "type": "address[]"
            }
          ],
          "indexed": false,
          "internalType": "struct BlindDateValues.Date",
          "name": "date",
          "type": "tuple"
        }
      ],
      "name": "endDateSent",
      "type": "event"
    },
    {
      "anonymous": false,
      "inputs": [
        {
          "components": [
            {
              "internalType": "uint256",
              "name": "id",
              "type": "uint256"
            },
            {
              "internalType": "enum BlindDateValues.DateStages",
              "name": "state",
              "type": "uint8"
            },
            {
              "internalType": "address[]",
              "name": "party",
              "type": "address[]"
            },
            {
              "internalType": "string[]",
              "name": "messagesList",
              "type": "string[]"
            },
            {
              "internalType": "address[]",
              "name": "messagesListSender",
              "type": "address[]"
            }
          ],
          "indexed": false,
          "internalType": "struct BlindDateValues.Date",
          "name": "date",
          "type": "tuple"
        }
      ],
      "name": "messageSent",
      "type": "event"
    },
    {
      "anonymous": false,
      "inputs": [],
      "name": "profileCreated",
      "type": "event"
    },
    {
      "anonymous": false,
      "inputs": [
        {
          "indexed": false,
          "internalType": "address",
          "name": "userAddress",
          "type": "address"
        }
      ],
      "name": "reactivatedAccount",
      "type": "event"
    },
    {
      "inputs": [
        {
          "internalType": "uint256",
          "name": "",
          "type": "uint256"
        }
      ],
      "name": "Dates",
      "outputs": [
        {
          "internalType": "uint256",
          "name": "id",
          "type": "uint256"
        },
        {
          "internalType": "enum BlindDateValues.DateStages",
          "name": "state",
          "type": "uint8"
        }
      ],
      "stateMutability": "view",
      "type": "function"
    },
    {
      "inputs": [
        {
          "internalType": "address",
          "name": "",
          "type": "address"
        }
      ],
      "name": "Profiles",
      "outputs": [
        {
          "internalType": "address",
          "name": "addr",
          "type": "address"
        },
        {
          "internalType": "bool",
          "name": "active",
          "type": "bool"
        },
        {
          "internalType": "string",
          "name": "nftImage",
          "type": "string"
        },
        {
          "internalType": "string",
          "name": "name",
          "type": "string"
        },
        {
          "internalType": "enum BlindDateValues.AgeRange",
          "name": "ageRange",
          "type": "uint8"
        },
        {
          "internalType": "enum BlindDateValues.SexAndPreference",
          "name": "sex",
          "type": "uint8"
        },
        {
          "internalType": "string",
          "name": "countryCode",
          "type": "string"
        },
        {
          "internalType": "enum BlindDateValues.SexAndPreference",
          "name": "preference",
          "type": "uint8"
        },
        {
          "internalType": "uint256",
          "name": "disputeCount",
          "type": "uint256"
        }
      ],
      "stateMutability": "view",
      "type": "function"
    },
    {
      "inputs": [
        {
          "internalType": "address",
          "name": "owner",
          "type": "address"
        },
        {
          "internalType": "address",
          "name": "spender",
          "type": "address"
        }
      ],
      "name": "allowance",
      "outputs": [
        {
          "internalType": "uint256",
          "name": "",
          "type": "uint256"
        }
      ],
      "stateMutability": "view",
      "type": "function"
    },
    {
      "inputs": [
        {
          "internalType": "address",
          "name": "spender",
          "type": "address"
        },
        {
          "internalType": "uint256",
          "name": "amount",
          "type": "uint256"
        }
      ],
      "name": "approve",
      "outputs": [
        {
          "internalType": "bool",
          "name": "",
          "type": "bool"
        }
      ],
      "stateMutability": "nonpayable",
      "type": "function"
    },
    {
      "inputs": [
        {
          "internalType": "address",
          "name": "account",
          "type": "address"
        }
      ],
      "name": "balanceOf",
      "outputs": [
        {
          "internalType": "uint256",
          "name": "",
          "type": "uint256"
        }
      ],
      "stateMutability": "view",
      "type": "function"
    },
    {
      "inputs": [],
      "name": "dateIdCounter",
      "outputs": [
        {
          "internalType": "uint256",
          "name": "",
          "type": "uint256"
        }
      ],
      "stateMutability": "view",
      "type": "function"
    },
    {
      "inputs": [],
      "name": "decimals",
      "outputs": [
        {
          "internalType": "uint8",
          "name": "",
          "type": "uint8"
        }
      ],
      "stateMutability": "view",
      "type": "function"
    },
    {
      "inputs": [
        {
          "internalType": "address",
          "name": "spender",
          "type": "address"
        },
        {
          "internalType": "uint256",
          "name": "subtractedValue",
          "type": "uint256"
        }
      ],
      "name": "decreaseAllowance",
      "outputs": [
        {
          "internalType": "bool",
          "name": "",
          "type": "bool"
        }
      ],
      "stateMutability": "nonpayable",
      "type": "function"
    },
    {
      "inputs": [
        {
          "internalType": "address",
          "name": "spender",
          "type": "address"
        },
        {
          "internalType": "uint256",
          "name": "addedValue",
          "type": "uint256"
        }
      ],
      "name": "increaseAllowance",
      "outputs": [
        {
          "internalType": "bool",
          "name": "",
          "type": "bool"
        }
      ],
      "stateMutability": "nonpayable",
      "type": "function"
    },
    {
      "inputs": [],
      "name": "name",
      "outputs": [
        {
          "internalType": "string",
          "name": "",
          "type": "string"
        }
      ],
      "stateMutability": "view",
      "type": "function"
    },
    {
      "inputs": [],
      "name": "owner",
      "outputs": [
        {
          "internalType": "address",
          "name": "",
          "type": "address"
        }
      ],
      "stateMutability": "view",
      "type": "function"
    },
    {
      "inputs": [
        {
          "internalType": "uint256",
          "name": "",
          "type": "uint256"
        }
      ],
      "name": "profilesArray",
      "outputs": [
        {
          "internalType": "address",
          "name": "",
          "type": "address"
        }
      ],
      "stateMutability": "view",
      "type": "function"
    },
    {
      "inputs": [],
      "name": "symbol",
      "outputs": [
        {
          "internalType": "string",
          "name": "",
          "type": "string"
        }
      ],
      "stateMutability": "view",
      "type": "function"
    },
    {
      "inputs": [],
      "name": "totalSupply",
      "outputs": [
        {
          "internalType": "uint256",
          "name": "",
          "type": "uint256"
        }
      ],
      "stateMutability": "view",
      "type": "function"
    },
    {
      "inputs": [
        {
          "internalType": "address",
          "name": "recipient",
          "type": "address"
        },
        {
          "internalType": "uint256",
          "name": "amount",
          "type": "uint256"
        }
      ],
      "name": "transfer",
      "outputs": [
        {
          "internalType": "bool",
          "name": "",
          "type": "bool"
        }
      ],
      "stateMutability": "nonpayable",
      "type": "function"
    },
    {
      "inputs": [
        {
          "internalType": "address",
          "name": "sender",
          "type": "address"
        },
        {
          "internalType": "address",
          "name": "recipient",
          "type": "address"
        },
        {
          "internalType": "uint256",
          "name": "amount",
          "type": "uint256"
        }
      ],
      "name": "transferFrom",
      "outputs": [
        {
          "internalType": "bool",
          "name": "",
          "type": "bool"
        }
      ],
      "stateMutability": "nonpayable",
      "type": "function"
    },
    {
      "inputs": [
        {
          "internalType": "address",
          "name": "addr",
          "type": "address"
        },
        {
          "internalType": "string",
          "name": "nftImage",
          "type": "string"
        },
        {
          "internalType": "string",
          "name": "name",
          "type": "string"
        },
        {
          "internalType": "enum BlindDateValues.AgeRange",
          "name": "ageRange",
          "type": "uint8"
        },
        {
          "internalType": "enum BlindDateValues.SexAndPreference",
          "name": "sex",
          "type": "uint8"
        },
        {
          "internalType": "string",
          "name": "countryCode",
          "type": "string"
        },
        {
          "internalType": "enum BlindDateValues.SexAndPreference",
          "name": "preference",
          "type": "uint8"
        },
        {
          "internalType": "enum BlindDateValues.Values[]",
          "name": "values",
          "type": "uint8[]"
        }
      ],
      "name": "addProfile",
      "outputs": [],
      "stateMutability": "nonpayable",
      "type": "function"
    },
    {
      "inputs": [
        {
          "internalType": "string",
          "name": "nftImage",
          "type": "string"
        },
        {
          "internalType": "string",
          "name": "name",
          "type": "string"
        },
        {
          "internalType": "enum BlindDateValues.AgeRange",
          "name": "ageRange",
          "type": "uint8"
        },
        {
          "internalType": "enum BlindDateValues.SexAndPreference",
          "name": "sex",
          "type": "uint8"
        },
        {
          "internalType": "string",
          "name": "countryCode",
          "type": "string"
        },
        {
          "internalType": "enum BlindDateValues.SexAndPreference",
          "name": "preference",
          "type": "uint8"
        },
        {
          "internalType": "enum BlindDateValues.Values[]",
          "name": "values",
          "type": "uint8[]"
        }
      ],
      "name": "updateProfile",
      "outputs": [],
      "stateMutability": "nonpayable",
      "type": "function"
    },
    {
      "inputs": [
        {
          "internalType": "address",
          "name": "datesAddress",
          "type": "address"
        },
        {
          "internalType": "string",
          "name": "message",
          "type": "string"
        }
      ],
      "name": "addDate",
      "outputs": [],
      "stateMutability": "nonpayable",
      "type": "function"
    },
    {
      "inputs": [
        {
          "internalType": "uint256",
          "name": "dateIdCounterIndex",
          "type": "uint256"
        }
      ],
      "name": "endDate",
      "outputs": [],
      "stateMutability": "nonpayable",
      "type": "function"
    },
    {
      "inputs": [
        {
          "internalType": "address",
          "name": "userAddress",
          "type": "address"
        },
        {
          "internalType": "uint256",
          "name": "dateIdCounterIndex",
          "type": "uint256"
        }
      ],
      "name": "setDispute",
      "outputs": [],
      "stateMutability": "nonpayable",
      "type": "function"
    },
    {
      "inputs": [],
      "name": "deactivateAccount",
      "outputs": [],
      "stateMutability": "nonpayable",
      "type": "function"
    },
    {
      "inputs": [
        {
          "internalType": "address",
          "name": "userAddress",
          "type": "address"
        }
      ],
      "name": "reactivateAccount",
      "outputs": [],
      "stateMutability": "nonpayable",
      "type": "function"
    },
    {
      "inputs": [
        {
          "internalType": "uint256",
          "name": "dateIndex",
          "type": "uint256"
        },
        {
          "internalType": "string",
          "name": "message",
          "type": "string"
        }
      ],
      "name": "sendMessage",
      "outputs": [],
      "stateMutability": "nonpayable",
      "type": "function"
    },
    {
      "inputs": [
        {
          "internalType": "uint256",
          "name": "dateIndex",
          "type": "uint256"
        }
      ],
      "name": "getDate",
      "outputs": [
        {
          "components": [
            {
              "internalType": "uint256",
              "name": "id",
              "type": "uint256"
            },
            {
              "internalType": "enum BlindDateValues.DateStages",
              "name": "state",
              "type": "uint8"
            },
            {
              "internalType": "address[]",
              "name": "party",
              "type": "address[]"
            },
            {
              "internalType": "string[]",
              "name": "messagesList",
              "type": "string[]"
            },
            {
              "internalType": "address[]",
              "name": "messagesListSender",
              "type": "address[]"
            }
          ],
          "internalType": "struct BlindDateValues.Date",
          "name": "",
          "type": "tuple"
        }
      ],
      "stateMutability": "view",
      "type": "function"
    },
    {
      "inputs": [
        {
          "internalType": "uint256",
          "name": "dateIndex",
          "type": "uint256"
        },
        {
          "internalType": "uint256",
          "name": "messageIndex",
          "type": "uint256"
        }
      ],
      "name": "getMessage",
      "outputs": [
        {
          "internalType": "string",
          "name": "",
          "type": "string"
        },
        {
          "internalType": "address",
          "name": "",
          "type": "address"
        }
      ],
      "stateMutability": "view",
      "type": "function"
    },
    {
      "inputs": [
        {
          "internalType": "uint256",
          "name": "dateIndex",
          "type": "uint256"
        }
      ],
      "name": "getMessages",
      "outputs": [
        {
          "internalType": "string[]",
          "name": "",
          "type": "string[]"
        },
        {
          "internalType": "address[]",
          "name": "",
          "type": "address[]"
        }
      ],
      "stateMutability": "view",
      "type": "function"
    },
    {
      "inputs": [
        {
          "internalType": "address",
          "name": "profileAddress",
          "type": "address"
        }
      ],
      "name": "getProfile",
      "outputs": [
        {
          "components": [
            {
              "internalType": "address",
              "name": "addr",
              "type": "address"
            },
            {
              "internalType": "bool",
              "name": "active",
              "type": "bool"
            },
            {
              "internalType": "string",
              "name": "nftImage",
              "type": "string"
            },
            {
              "internalType": "string",
              "name": "name",
              "type": "string"
            },
            {
              "internalType": "enum BlindDateValues.AgeRange",
              "name": "ageRange",
              "type": "uint8"
            },
            {
              "internalType": "enum BlindDateValues.SexAndPreference",
              "name": "sex",
              "type": "uint8"
            },
            {
              "internalType": "string",
              "name": "countryCode",
              "type": "string"
            },
            {
              "internalType": "enum BlindDateValues.SexAndPreference",
              "name": "preference",
              "type": "uint8"
            },
            {
              "internalType": "enum BlindDateValues.Values[]",
              "name": "values",
              "type": "uint8[]"
            },
            {
              "internalType": "uint256",
              "name": "disputeCount",
              "type": "uint256"
            },
            {
              "internalType": "uint256[]",
              "name": "dates",
              "type": "uint256[]"
            }
          ],
          "internalType": "struct BlindDateValues.Profile",
          "name": "",
          "type": "tuple"
        }
      ],
      "stateMutability": "view",
      "type": "function"
    },
    {
      "inputs": [],
      "name": "getAllProfiles",
      "outputs": [
        {
          "internalType": "address[]",
          "name": "",
          "type": "address[]"
        }
      ],
      "stateMutability": "view",
      "type": "function"
    }
  ],
  "bytecode": "0x6080604052600060065533600760006101000a81548173ffffffffffffffffffffffffffffffffffffffff021916908373ffffffffffffffffffffffffffffffffffffffff160217905550600360085560036009556005600a55608c600b553480156200006b57600080fd5b506040518060400160405280600981526020017f426c696e644461746500000000000000000000000000000000000000000000008152506040518060400160405280600481526020017f42444154000000000000000000000000000000000000000000000000000000008152508160039080519060200190620000f0929190620002fa565b50806004908051906020019062000109929190620002fa565b5050506200014b33620001216200015160201b60201c565b600a6200012f919062000505565b620186a06200013f919062000642565b6200015a60201b60201c565b6200075b565b60006012905090565b600073ffffffffffffffffffffffffffffffffffffffff168273ffffffffffffffffffffffffffffffffffffffff161415620001cd576040517f08c379a0000000000000000000000000000000000000000000000000000000008152600401620001c490620003fd565b60405180910390fd5b620001e160008383620002d360201b60201c565b8060026000828254620001f591906200044d565b92505081905550806000808473ffffffffffffffffffffffffffffffffffffffff1673ffffffffffffffffffffffffffffffffffffffff16815260200190815260200160002060008282546200024c91906200044d565b925050819055508173ffffffffffffffffffffffffffffffffffffffff16600073ffffffffffffffffffffffffffffffffffffffff167fddf252ad1be2c89b69c2b068fc378daa952ba7f163c4a11628f55a4df523b3ef83604051620002b391906200041f565b60405180910390a3620002cf60008383620002f060201b60201c565b5050565b620002eb838383620002f560201b620032c71760201c565b505050565b505050565b505050565b8280546200030890620006ba565b90600052602060002090601f0160209004810192826200032c576000855562000378565b82601f106200034757805160ff191683800117855562000378565b8280016001018555821562000378579182015b82811115620003775782518255916020019190600101906200035a565b5b5090506200038791906200038b565b5090565b5b80821115620003a65760008160009055506001016200038c565b5090565b6000620003b9601f836200043c565b91507f45524332303a206d696e7420746f20746865207a65726f2061646472657373006000830152602082019050919050565b620003f781620006a3565b82525050565b600060208201905081810360008301526200041881620003aa565b9050919050565b6000602082019050620004366000830184620003ec565b92915050565b600082825260208201905092915050565b60006200045a82620006a3565b91506200046783620006a3565b9250827fffffffffffffffffffffffffffffffffffffffffffffffffffffffffffffffff038211156200049f576200049e620006f0565b5b828201905092915050565b6000808291508390505b6001851115620004fc57808604811115620004d457620004d3620006f0565b5b6001851615620004e45780820291505b8081029050620004f4856200074e565b9450620004b4565b94509492505050565b60006200051282620006a3565b91506200051f83620006ad565b92506200054e7fffffffffffffffffffffffffffffffffffffffffffffffffffffffffffffffff848462000556565b905092915050565b6000826200056857600190506200063b565b816200057857600090506200063b565b81600181146200059157600281146200059c57620005d2565b60019150506200063b565b60ff841115620005b157620005b0620006f0565b5b8360020a915084821115620005cb57620005ca620006f0565b5b506200063b565b5060208310610133831016604e8410600b84101617156200060c5782820a905083811115620006065762000605620006f0565b5b6200063b565b6200061b8484846001620004aa565b92509050818404811115620006355762000634620006f0565b5b81810290505b9392505050565b60006200064f82620006a3565b91506200065c83620006a3565b9250817fffffffffffffffffffffffffffffffffffffffffffffffffffffffffffffffff0483118215151615620006985762000697620006f0565b5b828202905092915050565b6000819050919050565b600060ff82169050919050565b60006002820490506001821680620006d357607f821691505b60208210811415620006ea57620006e96200071f565b5b50919050565b7f4e487b7100000000000000000000000000000000000000000000000000000000600052601160045260246000fd5b7f4e487b7100000000000000000000000000000000000000000000000000000000600052602260045260246000fd5b60008160011c9050919050565b61590c806200076b6000396000f3fe608060405234801561001057600080fd5b50600436106101cf5760003560e01c80638da5cb5b11610104578063ae36853d116100a2578063dd62ed3e11610071578063dd62ed3e14610584578063e040e9a0146105b4578063e2528397146105be578063f790b1ba146105ee576101cf565b8063ae36853d146104e8578063bc74eaeb14610519578063cbe88cd914610535578063da0632ad14610553576101cf565b8063a457c2d7116100de578063a457c2d714610450578063a72877dd14610480578063a9059cbb1461049c578063aae8b592146104cc576101cf565b80638da5cb5b146103f857806395d89b411461041657806398d26db714610434576101cf565b8063313ce567116101715780634cac5b4b1161014b5780634cac5b4b1461037457806365840810146103905780636cc826c7146103ac57806370a08231146103c8576101cf565b8063313ce567146102ee578063395093511461030c57806345ffb23c1461033c576101cf565b80630f53a470116101ad5780630f53a4701461024057806318160ddd1461027057806323b872dd1461028e5780632b57298b146102be576101cf565b806306fdde03146101d4578063095ea7b3146101f25780630b1fe78414610222575b600080fd5b6101dc61061f565b6040516101e99190614f94565b60405180910390f35b61020c60048036038101906102079190613fe6565b6106b1565b6040516102199190614f79565b60405180910390f35b61022a6106cf565b6040516102379190614f20565b60405180910390f35b61025a60048036038101906102559190613dcc565b61075d565b604051610267919061520a565b60405180910390f35b610278610c88565b604051610285919061522c565b60405180910390f35b6102a860048036038101906102a39190613e31565b610c92565b6040516102b59190614f79565b60405180910390f35b6102d860048036038101906102d39190614120565b610d8a565b6040516102e591906151c6565b60405180910390f35b6102f661103d565b6040516103039190615270565b60405180910390f35b61032660048036038101906103219190613fe6565b611046565b6040516103339190614f79565b60405180910390f35b61035660048036038101906103519190613dcc565b6110f2565b60405161036b99989796959493929190614e55565b60405180910390f35b61038e60048036038101906103899190614120565b61132c565b005b6103aa60048036038101906103a59190613fe6565b611473565b005b6103c660048036038101906103c19190613e80565b611644565b005b6103e260048036038101906103dd9190613dcc565b611bea565b6040516103ef919061522c565b60405180910390f35b610400611c32565b60405161040d9190614e3a565b60405180910390f35b61041e611c58565b60405161042b9190614f94565b60405180910390f35b61044e60048036038101906104499190613ed4565b611cea565b005b61046a60048036038101906104659190613fe6565b612259565b6040516104779190614f79565b60405180910390f35b61049a60048036038101906104959190614022565b612344565b005b6104b660048036038101906104b19190613fe6565b6129dc565b6040516104c39190614f79565b60405180910390f35b6104e660048036038101906104e19190614149565b6129fa565b005b61050260048036038101906104fd9190614120565b612cc4565b604051610510929190614f42565b60405180910390f35b610533600480360381019061052e9190613dcc565b612e57565b005b61053d612fca565b60405161054a919061522c565b60405180910390f35b61056d6004803603810190610568919061419d565b612fd0565b60405161057b929190614fb6565b60405180910390f35b61059e60048036038101906105999190613df5565b61313c565b6040516105ab919061522c565b60405180910390f35b6105bc6131c3565b005b6105d860048036038101906105d39190614120565b613257565b6040516105e59190614e3a565b60405180910390f35b61060860048036038101906106039190614120565b613296565b604051610616929190615247565b60405180910390f35b60606003805461062e90615672565b80601f016020809104026020016040519081016040528092919081815260200182805461065a90615672565b80156106a75780601f1061067c576101008083540402835291602001916106a7565b820191906000526020600020905b81548152906001019060200180831161068a57829003601f168201915b5050505050905090565b60006106c56106be6132cc565b84846132d4565b6001905092915050565b6060600580548060200260200160405190810160405280929190818152602001828054801561075357602002820191906000526020600020905b8160009054906101000a900473ffffffffffffffffffffffffffffffffffffffff1673ffffffffffffffffffffffffffffffffffffffff1681526020019060010190808311610709575b5050505050905090565b6107656137ca565b600c60008373ffffffffffffffffffffffffffffffffffffffff1673ffffffffffffffffffffffffffffffffffffffff168152602001908152602001600020604051806101600160405290816000820160009054906101000a900473ffffffffffffffffffffffffffffffffffffffff1673ffffffffffffffffffffffffffffffffffffffff1673ffffffffffffffffffffffffffffffffffffffff1681526020016000820160149054906101000a900460ff1615151515815260200160018201805461083190615672565b80601f016020809104026020016040519081016040528092919081815260200182805461085d90615672565b80156108aa5780601f1061087f576101008083540402835291602001916108aa565b820191906000526020600020905b81548152906001019060200180831161088d57829003601f168201915b505050505081526020016002820180546108c390615672565b80601f01602080910402602001604051908101604052809291908181526020018280546108ef90615672565b801561093c5780601f106109115761010080835404028352916020019161093c565b820191906000526020600020905b81548152906001019060200180831161091f57829003601f168201915b505050505081526020016003820160009054906101000a900460ff166007811115610990577f4e487b7100000000000000000000000000000000000000000000000000000000600052602160045260246000fd5b60078111156109c8577f4e487b7100000000000000000000000000000000000000000000000000000000600052602160045260246000fd5b81526020016003820160019054906101000a900460ff166002811115610a17577f4e487b7100000000000000000000000000000000000000000000000000000000600052602160045260246000fd5b6002811115610a4f577f4e487b7100000000000000000000000000000000000000000000000000000000600052602160045260246000fd5b8152602001600482018054610a6390615672565b80601f0160208091040260200160405190810160405280929190818152602001828054610a8f90615672565b8015610adc5780601f10610ab157610100808354040283529160200191610adc565b820191906000526020600020905b815481529060010190602001808311610abf57829003601f168201915b505050505081526020016005820160009054906101000a900460ff166002811115610b30577f4e487b7100000000000000000000000000000000000000000000000000000000600052602160045260246000fd5b6002811115610b68577f4e487b7100000000000000000000000000000000000000000000000000000000600052602160045260246000fd5b815260200160068201805480602002602001604051908101604052809291908181526020018280548015610c1657602002820191906000526020600020906000905b82829054906101000a900460ff166027811115610bf0577f4e487b7100000000000000000000000000000000000000000000000000000000600052602160045260246000fd5b81526020019060010190602082600001049283019260010382029150808411610baa5790505b505050505081526020016007820154815260200160088201805480602002602001604051908101604052809291908181526020018280548015610c7857602002820191906000526020600020905b815481526020019060010190808311610c64575b5050505050815250509050919050565b6000600254905090565b6000610c9f84848461349f565b6000600160008673ffffffffffffffffffffffffffffffffffffffff1673ffffffffffffffffffffffffffffffffffffffff1681526020019081526020016000206000610cea6132cc565b73ffffffffffffffffffffffffffffffffffffffff1673ffffffffffffffffffffffffffffffffffffffff16815260200190815260200160002054905082811015610d6a576040517f08c379a0000000000000000000000000000000000000000000000000000000008152600401610d6190615086565b60405180910390fd5b610d7e85610d766132cc565b8584036132d4565b60019150509392505050565b610d926138e4565b600d60008381526020019081526020016000206040518060a0016040529081600082015481526020016001820160009054906101000a900460ff166001811115610e05577f4e487b7100000000000000000000000000000000000000000000000000000000600052602160045260246000fd5b6001811115610e3d577f4e487b7100000000000000000000000000000000000000000000000000000000600052602160045260246000fd5b815260200160028201805480602002602001604051908101604052809291908181526020018280548015610ec657602002820191906000526020600020905b8160009054906101000a900473ffffffffffffffffffffffffffffffffffffffff1673ffffffffffffffffffffffffffffffffffffffff1681526020019060010190808311610e7c575b5050505050815260200160038201805480602002602001604051908101604052809291908181526020016000905b82821015610fa0578382906000526020600020018054610f1390615672565b80601f0160208091040260200160405190810160405280929190818152602001828054610f3f90615672565b8015610f8c5780601f10610f6157610100808354040283529160200191610f8c565b820191906000526020600020905b815481529060010190602001808311610f6f57829003601f168201915b505050505081526020019060010190610ef4565b5050505081526020016004820180548060200260200160405190810160405280929190818152602001828054801561102d57602002820191906000526020600020905b8160009054906101000a900473ffffffffffffffffffffffffffffffffffffffff1673ffffffffffffffffffffffffffffffffffffffff1681526020019060010190808311610fe3575b5050505050815250509050919050565b60006012905090565b60006110e86110536132cc565b8484600160006110616132cc565b73ffffffffffffffffffffffffffffffffffffffff1673ffffffffffffffffffffffffffffffffffffffff16815260200190815260200160002060008873ffffffffffffffffffffffffffffffffffffffff1673ffffffffffffffffffffffffffffffffffffffff168152602001908152602001600020546110e391906154ba565b6132d4565b6001905092915050565b600c6020528060005260406000206000915090508060000160009054906101000a900473ffffffffffffffffffffffffffffffffffffffff16908060000160149054906101000a900460ff169080600101805461114e90615672565b80601f016020809104026020016040519081016040528092919081815260200182805461117a90615672565b80156111c75780601f1061119c576101008083540402835291602001916111c7565b820191906000526020600020905b8154815290600101906020018083116111aa57829003601f168201915b5050505050908060020180546111dc90615672565b80601f016020809104026020016040519081016040528092919081815260200182805461120890615672565b80156112555780601f1061122a57610100808354040283529160200191611255565b820191906000526020600020905b81548152906001019060200180831161123857829003601f168201915b5050505050908060030160009054906101000a900460ff16908060030160019054906101000a900460ff169080600401805461129090615672565b80601f01602080910402602001604051908101604052809291908181526020018280546112bc90615672565b80156113095780601f106112de57610100808354040283529160200191611309565b820191906000526020600020905b8154815290600101906020018083116112ec57829003601f168201915b5050505050908060050160009054906101000a900460ff16908060070154905089565b60011515600c60003373ffffffffffffffffffffffffffffffffffffffff1673ffffffffffffffffffffffffffffffffffffffff16815260200190815260200160002060000160149054906101000a900460ff161515146113c2576040517f08c379a00000000000000000000000000000000000000000000000000000000081526004016113b990615026565b60405180910390fd5b6001600d600083815260200190815260200160002060010160006101000a81548160ff02191690836001811115611422577f4e487b7100000000000000000000000000000000000000000000000000000000600052602160045260246000fd5b02179055507f15f2d855728079c120f8104ecd451481ac816c80772658858bef525601676942600d600083815260200190815260200160002060405161146891906151e8565b60405180910390a150565b60011515600c60003373ffffffffffffffffffffffffffffffffffffffff1673ffffffffffffffffffffffffffffffffffffffff16815260200190815260200160002060000160149054906101000a900460ff16151514611509576040517f08c379a000000000000000000000000000000000000000000000000000000000815260040161150090615026565b60405180910390fd5b8181600161151657600080fd5b600c60008573ffffffffffffffffffffffffffffffffffffffff1673ffffffffffffffffffffffffffffffffffffffff1681526020019081526020016000206007016000815480929190611569906156f2565b9190505550600854600c60008673ffffffffffffffffffffffffffffffffffffffff1673ffffffffffffffffffffffffffffffffffffffff16815260200190815260200160002060070154106115c3576115c284613720565b5b7f82db2ec13186f1f22bb17bb654203ac972b3a87a7b7659c74a27964d074677f784600c60008773ffffffffffffffffffffffffffffffffffffffff1673ffffffffffffffffffffffffffffffffffffffff16815260200190815260200160002060070154604051611636929190614ef7565b60405180910390a150505050565b8160011515600c60008373ffffffffffffffffffffffffffffffffffffffff1673ffffffffffffffffffffffffffffffffffffffff16815260200190815260200160002060000160149054906101000a900460ff161515146116db576040517f08c379a00000000000000000000000000000000000000000000000000000000081526004016116d2906150a6565b60405180910390fd5b81600b5481511115611722576040517f08c379a000000000000000000000000000000000000000000000000000000000815260040161171990615186565b60405180910390fd5b60011515600c60003373ffffffffffffffffffffffffffffffffffffffff1673ffffffffffffffffffffffffffffffffffffffff16815260200190815260200160002060000160149054906101000a900460ff161515146117b8576040517f08c379a00000000000000000000000000000000000000000000000000000000081526004016117af90615026565b60405180910390fd5b6060806040518060a00160405280600654815260200160006001811115611808577f4e487b7100000000000000000000000000000000000000000000000000000000600052602160045260246000fd5b815260200182815260200183815260200182815250600d600060065481526020019081526020016000206000820151816000015560208201518160010160006101000a81548160ff0219169083600181111561188d577f4e487b7100000000000000000000000000000000000000000000000000000000600052602160045260246000fd5b021790555060408201518160020190805190602001906118ae92919061394b565b5060608201518160030190805190602001906118cb9291906139d5565b5060808201518160040190805190602001906118e892919061394b565b50905050600d60006006548152602001908152602001600020600201339080600181540180825580915050600190039060005260206000200160009091909190916101000a81548173ffffffffffffffffffffffffffffffffffffffff021916908373ffffffffffffffffffffffffffffffffffffffff160217905550600d60006006548152602001908152602001600020600201869080600181540180825580915050600190039060005260206000200160009091909190916101000a81548173ffffffffffffffffffffffffffffffffffffffff021916908373ffffffffffffffffffffffffffffffffffffffff160217905550600d6000600654815260200190815260200160002060030185908060018154018082558091505060019003906000526020600020016000909190919091509080519060200190611a2f929190613a35565b50600d60006006548152602001908152602001600020600401339080600181540180825580915050600190039060005260206000200160009091909190916101000a81548173ffffffffffffffffffffffffffffffffffffffff021916908373ffffffffffffffffffffffffffffffffffffffff160217905550600c60003373ffffffffffffffffffffffffffffffffffffffff1673ffffffffffffffffffffffffffffffffffffffff1681526020019081526020016000206008016006549080600181540180825580915050600190039060005260206000200160009091909190915055600c60008773ffffffffffffffffffffffffffffffffffffffff1673ffffffffffffffffffffffffffffffffffffffff168152602001908152602001600020600801600654908060018154018082558091505060019003906000526020600020016000909190919091505560066000815480929190611b92906156f2565b91905055507fe1baf1f296791bb5450a10e8820c25096b9238993ed64609413e6b353360617c600d60006006548152602001908152602001600020604051611bda91906151e8565b60405180910390a1505050505050565b60008060008373ffffffffffffffffffffffffffffffffffffffff1673ffffffffffffffffffffffffffffffffffffffff168152602001908152602001600020549050919050565b600760009054906101000a900473ffffffffffffffffffffffffffffffffffffffff1681565b606060048054611c6790615672565b80601f0160208091040260200160405190810160405280929190818152602001828054611c9390615672565b8015611ce05780601f10611cb557610100808354040283529160200191611ce0565b820191906000526020600020905b815481529060010190602001808311611cc357829003601f168201915b5050505050905090565b80600a5481511115611d31576040517f08c379a0000000000000000000000000000000000000000000000000000000008152600401611d28906150e6565b60405180910390fd5b600c60003373ffffffffffffffffffffffffffffffffffffffff1673ffffffffffffffffffffffffffffffffffffffff16815260200190815260200160002060000160149054906101000a900460ff1680611ddf575060001515600c60003373ffffffffffffffffffffffffffffffffffffffff1673ffffffffffffffffffffffffffffffffffffffff16815260200190815260200160002060000160149054906101000a900460ff161515145b611e1e576040517f08c379a0000000000000000000000000000000000000000000000000000000008152600401611e15906150c6565b60405180910390fd5b83600954815114611e64576040517f08c379a0000000000000000000000000000000000000000000000000000000008152600401611e5b90615146565b60405180910390fd5b60606040518061016001604052808c73ffffffffffffffffffffffffffffffffffffffff1681526020016001151581526020018b81526020018a8152602001896007811115611edc577f4e487b7100000000000000000000000000000000000000000000000000000000600052602160045260246000fd5b8152602001886002811115611f1a577f4e487b7100000000000000000000000000000000000000000000000000000000600052602160045260246000fd5b8152602001878152602001866002811115611f5e577f4e487b7100000000000000000000000000000000000000000000000000000000600052602160045260246000fd5b81526020018581526020016000815260200182815250600c60008d73ffffffffffffffffffffffffffffffffffffffff1673ffffffffffffffffffffffffffffffffffffffff16815260200190815260200160002060008201518160000160006101000a81548173ffffffffffffffffffffffffffffffffffffffff021916908373ffffffffffffffffffffffffffffffffffffffff16021790555060208201518160000160146101000a81548160ff0219169083151502179055506040820151816001019080519060200190612036929190613a35565b506060820151816002019080519060200190612053929190613a35565b5060808201518160030160006101000a81548160ff021916908360078111156120a5577f4e487b7100000000000000000000000000000000000000000000000000000000600052602160045260246000fd5b021790555060a08201518160030160016101000a81548160ff021916908360028111156120fb577f4e487b7100000000000000000000000000000000000000000000000000000000600052602160045260246000fd5b021790555060c082015181600401908051906020019061211c929190613a35565b5060e08201518160050160006101000a81548160ff0219169083600281111561216e577f4e487b7100000000000000000000000000000000000000000000000000000000600052602160045260246000fd5b0217905550610100820151816006019080519060200190612190929190613abb565b5061012082015181600701556101408201518160080190805190602001906121b9929190613b97565b509050506005339080600181540180825580915050600190039060005260206000200160009091909190916101000a81548173ffffffffffffffffffffffffffffffffffffffff021916908373ffffffffffffffffffffffffffffffffffffffff1602179055507f40a8c3799c391f07d947dfb4553988aca1d9aae26236cc12fcccfc454cf7d3a360405160405180910390a15050505050505050505050565b600080600160006122686132cc565b73ffffffffffffffffffffffffffffffffffffffff1673ffffffffffffffffffffffffffffffffffffffff16815260200190815260200160002060008573ffffffffffffffffffffffffffffffffffffffff1673ffffffffffffffffffffffffffffffffffffffff16815260200190815260200160002054905082811015612325576040517f08c379a000000000000000000000000000000000000000000000000000000000815260040161231c906151a6565b60405180910390fd5b6123396123306132cc565b858584036132d4565b600191505092915050565b80600a548151111561238b576040517f08c379a0000000000000000000000000000000000000000000000000000000008152600401612382906150e6565b60405180910390fd5b333373ffffffffffffffffffffffffffffffffffffffff16600c60003373ffffffffffffffffffffffffffffffffffffffff1673ffffffffffffffffffffffffffffffffffffffff16815260200190815260200160002060000160009054906101000a900473ffffffffffffffffffffffffffffffffffffffff1673ffffffffffffffffffffffffffffffffffffffff1614806124755750600760009054906101000a900473ffffffffffffffffffffffffffffffffffffffff1673ffffffffffffffffffffffffffffffffffffffff163373ffffffffffffffffffffffffffffffffffffffff16145b61247e57600080fd5b60011515600c60003373ffffffffffffffffffffffffffffffffffffffff1673ffffffffffffffffffffffffffffffffffffffff16815260200190815260200160002060000160149054906101000a900460ff16151514612514576040517f08c379a000000000000000000000000000000000000000000000000000000000815260040161250b90615026565b60405180910390fd5b8460095481511461255a576040517f08c379a000000000000000000000000000000000000000000000000000000000815260040161255190615146565b60405180910390fd5b6040518061016001604052803373ffffffffffffffffffffffffffffffffffffffff168152602001600c60003373ffffffffffffffffffffffffffffffffffffffff1673ffffffffffffffffffffffffffffffffffffffff16815260200190815260200160002060000160149054906101000a900460ff16151581526020018b81526020018a815260200189600781111561261e577f4e487b7100000000000000000000000000000000000000000000000000000000600052602160045260246000fd5b815260200188600281111561265c577f4e487b7100000000000000000000000000000000000000000000000000000000600052602160045260246000fd5b81526020018781526020018660028111156126a0577f4e487b7100000000000000000000000000000000000000000000000000000000600052602160045260246000fd5b8152602001858152602001600c60003373ffffffffffffffffffffffffffffffffffffffff1673ffffffffffffffffffffffffffffffffffffffff168152602001908152602001600020600701548152602001600c60003373ffffffffffffffffffffffffffffffffffffffff1673ffffffffffffffffffffffffffffffffffffffff16815260200190815260200160002060080180548060200260200160405190810160405280929190818152602001828054801561277f57602002820191906000526020600020905b81548152602001906001019080831161276b575b5050505050815250600c60003373ffffffffffffffffffffffffffffffffffffffff1673ffffffffffffffffffffffffffffffffffffffff16815260200190815260200160002060008201518160000160006101000a81548173ffffffffffffffffffffffffffffffffffffffff021916908373ffffffffffffffffffffffffffffffffffffffff16021790555060208201518160000160146101000a81548160ff0219169083151502179055506040820151816001019080519060200190612849929190613a35565b506060820151816002019080519060200190612866929190613a35565b5060808201518160030160006101000a81548160ff021916908360078111156128b8577f4e487b7100000000000000000000000000000000000000000000000000000000600052602160045260246000fd5b021790555060a08201518160030160016101000a81548160ff0219169083600281111561290e577f4e487b7100000000000000000000000000000000000000000000000000000000600052602160045260246000fd5b021790555060c082015181600401908051906020019061292f929190613a35565b5060e08201518160050160006101000a81548160ff02191690836002811115612981577f4e487b7100000000000000000000000000000000000000000000000000000000600052602160045260246000fd5b02179055506101008201518160060190805190602001906129a3929190613abb565b5061012082015181600701556101408201518160080190805190602001906129cc929190613b97565b5090505050505050505050505050565b60006129f06129e96132cc565b848461349f565b6001905092915050565b80600b5481511115612a41576040517f08c379a0000000000000000000000000000000000000000000000000000000008152600401612a3890615186565b60405180910390fd5b60011515600c60003373ffffffffffffffffffffffffffffffffffffffff1673ffffffffffffffffffffffffffffffffffffffff16815260200190815260200160002060000160149054906101000a900460ff16151514612ad7576040517f08c379a0000000000000000000000000000000000000000000000000000000008152600401612ace90615026565b60405180910390fd5b8260006001811115612b12577f4e487b7100000000000000000000000000000000000000000000000000000000600052602160045260246000fd5b600d600083815260200190815260200160002060010160009054906101000a900460ff166001811115612b6e577f4e487b7100000000000000000000000000000000000000000000000000000000600052602160045260246000fd5b14612bae576040517f08c379a0000000000000000000000000000000000000000000000000000000008152600401612ba590615066565b60405180910390fd5b600d600085815260200190815260200160002060030183908060018154018082558091505060019003906000526020600020016000909190919091509080519060200190612bfd929190613a35565b50600d6000858152602001908152602001600020600401339080600181540180825580915050600190039060005260206000200160009091909190916101000a81548173ffffffffffffffffffffffffffffffffffffffff021916908373ffffffffffffffffffffffffffffffffffffffff1602179055507fe4099fe90172b7d35107bd2b7fcd5b3c1ffcf73149497a1d9a720adef3504f23600d6000868152602001908152602001600020604051612cb691906151e8565b60405180910390a150505050565b606080600d6000848152602001908152602001600020600301600d600085815260200190815260200160002060040181805480602002602001604051908101604052809291908181526020016000905b82821015612dc0578382906000526020600020018054612d3390615672565b80601f0160208091040260200160405190810160405280929190818152602001828054612d5f90615672565b8015612dac5780601f10612d8157610100808354040283529160200191612dac565b820191906000526020600020905b815481529060010190602001808311612d8f57829003601f168201915b505050505081526020019060010190612d14565b50505050915080805480602002602001604051908101604052809291908181526020018280548015612e4757602002820191906000526020600020905b8160009054906101000a900473ffffffffffffffffffffffffffffffffffffffff1673ffffffffffffffffffffffffffffffffffffffff1681526020019060010190808311612dfd575b5050505050905091509150915091565b3373ffffffffffffffffffffffffffffffffffffffff16600760009054906101000a900473ffffffffffffffffffffffffffffffffffffffff1673ffffffffffffffffffffffffffffffffffffffff161480612ef65750600854600c60003373ffffffffffffffffffffffffffffffffffffffff1673ffffffffffffffffffffffffffffffffffffffff16815260200190815260200160002060070154105b612f35576040517f08c379a0000000000000000000000000000000000000000000000000000000008152600401612f2c90615126565b60405180910390fd5b6001600c60008373ffffffffffffffffffffffffffffffffffffffff1673ffffffffffffffffffffffffffffffffffffffff16815260200190815260200160002060000160146101000a81548160ff0219169083151502179055507ff84e06f5309ca4e21f7f22fa4231ca0154644066cf71137b964c06a4c47ee93681604051612fbf9190614e3a565b60405180910390a150565b60065481565b60606000600d60008581526020019081526020016000206003018381548110613022577f4e487b7100000000000000000000000000000000000000000000000000000000600052603260045260246000fd5b90600052602060002001600d6000868152602001908152602001600020600401848154811061307a577f4e487b7100000000000000000000000000000000000000000000000000000000600052603260045260246000fd5b9060005260206000200160009054906101000a900473ffffffffffffffffffffffffffffffffffffffff168180546130b190615672565b80601f01602080910402602001604051908101604052809291908181526020018280546130dd90615672565b801561312a5780601f106130ff5761010080835404028352916020019161312a565b820191906000526020600020905b81548152906001019060200180831161310d57829003601f168201915b50505050509150915091509250929050565b6000600160008473ffffffffffffffffffffffffffffffffffffffff1673ffffffffffffffffffffffffffffffffffffffff16815260200190815260200160002060008373ffffffffffffffffffffffffffffffffffffffff1673ffffffffffffffffffffffffffffffffffffffff16815260200190815260200160002054905092915050565b6000600c60003373ffffffffffffffffffffffffffffffffffffffff1673ffffffffffffffffffffffffffffffffffffffff16815260200190815260200160002060000160146101000a81548160ff0219169083151502179055507f16dcb4974c58390b1827177ee47850ed71963d39ecce7d69095f6ed7551c36703360405161324d9190614e3a565b60405180910390a1565b6005818154811061326757600080fd5b906000526020600020016000915054906101000a900473ffffffffffffffffffffffffffffffffffffffff1681565b600d6020528060005260406000206000915090508060000154908060010160009054906101000a900460ff16905082565b505050565b600033905090565b600073ffffffffffffffffffffffffffffffffffffffff168373ffffffffffffffffffffffffffffffffffffffff161415613344576040517f08c379a000000000000000000000000000000000000000000000000000000000815260040161333b90615166565b60405180910390fd5b600073ffffffffffffffffffffffffffffffffffffffff168273ffffffffffffffffffffffffffffffffffffffff1614156133b4576040517f08c379a00000000000000000000000000000000000000000000000000000000081526004016133ab90615006565b60405180910390fd5b80600160008573ffffffffffffffffffffffffffffffffffffffff1673ffffffffffffffffffffffffffffffffffffffff16815260200190815260200160002060008473ffffffffffffffffffffffffffffffffffffffff1673ffffffffffffffffffffffffffffffffffffffff168152602001908152602001600020819055508173ffffffffffffffffffffffffffffffffffffffff168373ffffffffffffffffffffffffffffffffffffffff167f8c5be1e5ebec7d5bd14f71427d1e84f3dd0314c0f7b2291e5b200ac8c7c3b92583604051613492919061522c565b60405180910390a3505050565b600073ffffffffffffffffffffffffffffffffffffffff168373ffffffffffffffffffffffffffffffffffffffff16141561350f576040517f08c379a000000000000000000000000000000000000000000000000000000000815260040161350690615106565b60405180910390fd5b600073ffffffffffffffffffffffffffffffffffffffff168273ffffffffffffffffffffffffffffffffffffffff16141561357f576040517f08c379a000000000000000000000000000000000000000000000000000000000815260040161357690614fe6565b60405180910390fd5b61358a8383836137b5565b60008060008573ffffffffffffffffffffffffffffffffffffffff1673ffffffffffffffffffffffffffffffffffffffff16815260200190815260200160002054905081811015613610576040517f08c379a000000000000000000000000000000000000000000000000000000000815260040161360790615046565b60405180910390fd5b8181036000808673ffffffffffffffffffffffffffffffffffffffff1673ffffffffffffffffffffffffffffffffffffffff16815260200190815260200160002081905550816000808573ffffffffffffffffffffffffffffffffffffffff1673ffffffffffffffffffffffffffffffffffffffff16815260200190815260200160002060008282546136a391906154ba565b925050819055508273ffffffffffffffffffffffffffffffffffffffff168473ffffffffffffffffffffffffffffffffffffffff167fddf252ad1be2c89b69c2b068fc378daa952ba7f163c4a11628f55a4df523b3ef84604051613707919061522c565b60405180910390a361371a8484846137c5565b50505050565b6000600c60008373ffffffffffffffffffffffffffffffffffffffff1673ffffffffffffffffffffffffffffffffffffffff16815260200190815260200160002060000160146101000a81548160ff0219169083151502179055507f16dcb4974c58390b1827177ee47850ed71963d39ecce7d69095f6ed7551c3670816040516137aa9190614e3a565b60405180910390a150565b6137c08383836132c7565b505050565b505050565b604051806101600160405280600073ffffffffffffffffffffffffffffffffffffffff168152602001600015158152602001606081526020016060815260200160006007811115613844577f4e487b7100000000000000000000000000000000000000000000000000000000600052602160045260246000fd5b815260200160006002811115613883577f4e487b7100000000000000000000000000000000000000000000000000000000600052602160045260246000fd5b815260200160608152602001600060028111156138c9577f4e487b7100000000000000000000000000000000000000000000000000000000600052602160045260246000fd5b81526020016060815260200160008152602001606081525090565b6040518060a001604052806000815260200160006001811115613930577f4e487b7100000000000000000000000000000000000000000000000000000000600052602160045260246000fd5b81526020016060815260200160608152602001606081525090565b8280548282559060005260206000209081019282156139c4579160200282015b828111156139c35782518260006101000a81548173ffffffffffffffffffffffffffffffffffffffff021916908373ffffffffffffffffffffffffffffffffffffffff1602179055509160200191906001019061396b565b5b5090506139d19190613be4565b5090565b828054828255906000526020600020908101928215613a24579160200282015b82811115613a23578251829080519060200190613a13929190613a35565b50916020019190600101906139f5565b5b509050613a319190613c01565b5090565b828054613a4190615672565b90600052602060002090601f016020900481019282613a635760008555613aaa565b82601f10613a7c57805160ff1916838001178555613aaa565b82800160010185558215613aaa579182015b82811115613aa9578251825591602001919060010190613a8e565b5b509050613ab79190613be4565b5090565b82805482825590600052602060002090601f01602090048101928215613b865791602002820160005b83821115613b5757835183826101000a81548160ff02191690836027811115613b36577f4e487b7100000000000000000000000000000000000000000000000000000000600052602160045260246000fd5b02179055509260200192600101602081600001049283019260010302613ae4565b8015613b845782816101000a81549060ff0219169055600101602081600001049283019260010302613b57565b505b509050613b939190613be4565b5090565b828054828255906000526020600020908101928215613bd3579160200282015b82811115613bd2578251825591602001919060010190613bb7565b5b509050613be09190613be4565b5090565b5b80821115613bfd576000816000905550600101613be5565b5090565b5b80821115613c215760008181613c189190613c25565b50600101613c02565b5090565b508054613c3190615672565b6000825580601f10613c435750613c62565b601f016020900490600052602060002090810190613c619190613be4565b5b50565b6000613c78613c73846152bc565b61528b565b90508083825260208201905082856020860282011115613c9757600080fd5b60005b85811015613cc75781613cad8882613d78565b845260208401935060208301925050600181019050613c9a565b5050509392505050565b6000613ce4613cdf846152e8565b61528b565b905082815260208101848484011115613cfc57600080fd5b613d07848285615630565b509392505050565b600081359050613d1e81615878565b92915050565b600082601f830112613d3557600080fd5b8135613d45848260208601613c65565b91505092915050565b600081359050613d5d8161588f565b92915050565b600081359050613d728161589f565b92915050565b600081359050613d87816158af565b92915050565b600082601f830112613d9e57600080fd5b8135613dae848260208601613cd1565b91505092915050565b600081359050613dc6816158bf565b92915050565b600060208284031215613dde57600080fd5b6000613dec84828501613d0f565b91505092915050565b60008060408385031215613e0857600080fd5b6000613e1685828601613d0f565b9250506020613e2785828601613d0f565b9150509250929050565b600080600060608486031215613e4657600080fd5b6000613e5486828701613d0f565b9350506020613e6586828701613d0f565b9250506040613e7686828701613db7565b9150509250925092565b60008060408385031215613e9357600080fd5b6000613ea185828601613d0f565b925050602083013567ffffffffffffffff811115613ebe57600080fd5b613eca85828601613d8d565b9150509250929050565b600080600080600080600080610100898b031215613ef157600080fd5b6000613eff8b828c01613d0f565b985050602089013567ffffffffffffffff811115613f1c57600080fd5b613f288b828c01613d8d565b975050604089013567ffffffffffffffff811115613f4557600080fd5b613f518b828c01613d8d565b9650506060613f628b828c01613d4e565b9550506080613f738b828c01613d63565b94505060a089013567ffffffffffffffff811115613f9057600080fd5b613f9c8b828c01613d8d565b93505060c0613fad8b828c01613d63565b92505060e089013567ffffffffffffffff811115613fca57600080fd5b613fd68b828c01613d24565b9150509295985092959890939650565b60008060408385031215613ff957600080fd5b600061400785828601613d0f565b925050602061401885828601613db7565b9150509250929050565b600080600080600080600060e0888a03121561403d57600080fd5b600088013567ffffffffffffffff81111561405757600080fd5b6140638a828b01613d8d565b975050602088013567ffffffffffffffff81111561408057600080fd5b61408c8a828b01613d8d565b965050604061409d8a828b01613d4e565b95505060606140ae8a828b01613d63565b945050608088013567ffffffffffffffff8111156140cb57600080fd5b6140d78a828b01613d8d565b93505060a06140e88a828b01613d63565b92505060c088013567ffffffffffffffff81111561410557600080fd5b6141118a828b01613d24565b91505092959891949750929550565b60006020828403121561413257600080fd5b600061414084828501613db7565b91505092915050565b6000806040838503121561415c57600080fd5b600061416a85828601613db7565b925050602083013567ffffffffffffffff81111561418757600080fd5b61419385828601613d8d565b9150509250929050565b600080604083850312156141b057600080fd5b60006141be85828601613db7565b92505060206141cf85828601613db7565b9150509250929050565b60006141e58383614249565b60208301905092915050565b60006141fd838361461a565b60208301905092915050565b60006142158383614629565b905092915050565b6000614229838361469b565b905092915050565b600061423d8383614e0d565b60208301905092915050565b61425281615547565b82525050565b61426181615547565b82525050565b600061427282615397565b61427c8185615432565b935061428783615318565b8060005b838110156142b857815161429f88826141d9565b97506142aa836153e4565b92505060018101905061428b565b5085935050505092915050565b60006142d082615397565b6142da8185615443565b93506142e583615318565b8060005b838110156143165781516142fd88826141d9565b9750614308836153e4565b9250506001810190506142e9565b5085935050505092915050565b600061432e826153a2565b6143388185615432565b935061434383615328565b8060005b8381101561437b57614358826157f7565b61436288826141d9565b975061436d836153f1565b925050600181019050614347565b5085935050505092915050565b6000614393826153ad565b61439d8185615487565b93506143a88361533d565b8060005b838110156143d95781516143c088826141f1565b97506143cb836153fe565b9250506001810190506143ac565b5085935050505092915050565b60006143f1826153b8565b6143fb8185615454565b93508360208202850161440d8561534d565b8060005b85811015614449578484038952815161442a8582614209565b94506144358361540b565b925060208a01995050600181019050614411565b50829750879550505050505092915050565b6000614466826153b8565b6144708185615465565b9350836020820285016144828561534d565b8060005b858110156144be578484038952815161449f8582614209565b94506144aa8361540b565b925060208a01995050600181019050614486565b50829750879550505050505092915050565b60006144db826153c3565b6144e58185615454565b9350836020820285016144f78561535d565b8060005b8581101561453257848403895281614513858261421d565b945061451e83615418565b925060208a019950506001810190506144fb565b50829750879550505050505092915050565b600061454f826153ce565b6145598185615476565b935061456483615372565b8060005b8381101561459557815161457c8882614231565b975061458783615425565b925050600181019050614568565b5085935050505092915050565b6145ab81615559565b82525050565b6145ba81615559565b82525050565b6145c9816155e8565b82525050565b6145d8816155e8565b82525050565b6145e7816155fa565b82525050565b6145f6816155fa565b82525050565b6146058161560c565b82525050565b6146148161560c565b82525050565b6146238161561e565b82525050565b6000614634826153d9565b61463e8185615498565b935061464e81856020860161563f565b6146578161580a565b840191505092915050565b600061466d826153d9565b61467781856154a9565b935061468781856020860161563f565b6146908161580a565b840191505092915050565b600081546146a881615672565b6146b28186615498565b945060018216600081146146cd57600181146146df57614712565b60ff1983168652602086019350614712565b6146e885615382565b60005b8381101561470a578154818901526001820191506020810190506146eb565b808801955050505b50505092915050565b60006147286023836154a9565b91507f45524332303a207472616e7366657220746f20746865207a65726f206164647260008301527f65737300000000000000000000000000000000000000000000000000000000006020830152604082019050919050565b600061478e6022836154a9565b91507f45524332303a20617070726f766520746f20746865207a65726f20616464726560008301527f73730000000000000000000000000000000000000000000000000000000000006020830152604082019050919050565b60006147f4600a836154a9565b91507f6e6f7420616374697665000000000000000000000000000000000000000000006000830152602082019050919050565b60006148346026836154a9565b91507f45524332303a207472616e7366657220616d6f756e742065786365656473206260008301527f616c616e636500000000000000000000000000000000000000000000000000006020830152604082019050919050565b600061489a600e836154a9565b91507f6e6f7420617574686f72697a65640000000000000000000000000000000000006000830152602082019050919050565b60006148da6028836154a9565b91507f45524332303a207472616e7366657220616d6f756e742065786365656473206160008301527f6c6c6f77616e63650000000000000000000000000000000000000000000000006020830152604082019050919050565b60006149406010836154a9565b91507f6e6f20636f6e7461637420666f756e64000000000000000000000000000000006000830152602082019050919050565b60006149806016836154a9565b91507f70726f66696c6520616c726561647920657869737473000000000000000000006000830152602082019050919050565b60006149c06010836154a9565b91507f696e636f72726563742076616c756573000000000000000000000000000000006000830152602082019050919050565b6000614a006025836154a9565b91507f45524332303a207472616e736665722066726f6d20746865207a65726f20616460008301527f64726573730000000000000000000000000000000000000000000000000000006020830152604082019050919050565b6000614a66600f836154a9565b91507f6e6f7420617574686f72697a65642e00000000000000000000000000000000006000830152602082019050919050565b6000614aa66020836154a9565b91507f696e636f7272656374206c656e677468206f6620636f756e74727920636f64656000830152602082019050919050565b6000614ae66024836154a9565b91507f45524332303a20617070726f76652066726f6d20746865207a65726f2061646460008301527f72657373000000000000000000000000000000000000000000000000000000006020830152604082019050919050565b6000614b4c6017836154a9565b91507f6d657373616765206c656e67746820746f6f206c6f6e670000000000000000006000830152602082019050919050565b6000614b8c6025836154a9565b91507f45524332303a2064656372656173656420616c6c6f77616e63652062656c6f7760008301527f207a65726f0000000000000000000000000000000000000000000000000000006020830152604082019050919050565b600060a083016000830151614bfd6000860182614e0d565b506020830151614c1060208601826145de565b5060408301518482036040860152614c288282614267565b91505060608301518482036060860152614c4282826143e6565b91505060808301518482036080860152614c5c8282614267565b9150508091505092915050565b600060a083016000808401549050614c80816156d8565b614c8d6000870182614e0d565b5060018401549050614c9e816156be565b614cab60208701826145de565b50600284018583036040870152614cc28382614323565b925050600384018583036060870152614cdb83826144d0565b925050600484018583036080870152614cf48382614323565b925050819250505092915050565b600061016083016000830151614d1b6000860182614249565b506020830151614d2e60208601826145a2565b5060408301518482036040860152614d468282614629565b91505060608301518482036060860152614d608282614629565b9150506080830151614d7560808601826145c0565b5060a0830151614d8860a08601826145fc565b5060c083015184820360c0860152614da08282614629565b91505060e0830151614db560e08601826145fc565b50610100830151848203610100860152614dcf8282614388565b915050610120830151614de6610120860182614e0d565b50610140830151848203610140860152614e008282614544565b9150508091505092915050565b614e16816155d1565b82525050565b614e25816155d1565b82525050565b614e34816155db565b82525050565b6000602082019050614e4f6000830184614258565b92915050565b600061012082019050614e6b600083018c614258565b614e78602083018b6145b1565b8181036040830152614e8a818a614662565b90508181036060830152614e9e8189614662565b9050614ead60808301886145cf565b614eba60a083018761460b565b81810360c0830152614ecc8186614662565b9050614edb60e083018561460b565b614ee9610100830184614e1c565b9a9950505050505050505050565b6000604082019050614f0c6000830185614258565b614f196020830184614e1c565b9392505050565b60006020820190508181036000830152614f3a81846142c5565b905092915050565b60006040820190508181036000830152614f5c818561445b565b90508181036020830152614f7081846142c5565b90509392505050565b6000602082019050614f8e60008301846145b1565b92915050565b60006020820190508181036000830152614fae8184614662565b905092915050565b60006040820190508181036000830152614fd08185614662565b9050614fdf6020830184614258565b9392505050565b60006020820190508181036000830152614fff8161471b565b9050919050565b6000602082019050818103600083015261501f81614781565b9050919050565b6000602082019050818103600083015261503f816147e7565b9050919050565b6000602082019050818103600083015261505f81614827565b9050919050565b6000602082019050818103600083015261507f8161488d565b9050919050565b6000602082019050818103600083015261509f816148cd565b9050919050565b600060208201905081810360008301526150bf81614933565b9050919050565b600060208201905081810360008301526150df81614973565b9050919050565b600060208201905081810360008301526150ff816149b3565b9050919050565b6000602082019050818103600083015261511f816149f3565b9050919050565b6000602082019050818103600083015261513f81614a59565b9050919050565b6000602082019050818103600083015261515f81614a99565b9050919050565b6000602082019050818103600083015261517f81614ad9565b9050919050565b6000602082019050818103600083015261519f81614b3f565b9050919050565b600060208201905081810360008301526151bf81614b7f565b9050919050565b600060208201905081810360008301526151e08184614be5565b905092915050565b600060208201905081810360008301526152028184614c69565b905092915050565b600060208201905081810360008301526152248184614d02565b905092915050565b60006020820190506152416000830184614e1c565b92915050565b600060408201905061525c6000830185614e1c565b61526960208301846145ed565b9392505050565b60006020820190506152856000830184614e2b565b92915050565b6000604051905081810181811067ffffffffffffffff821117156152b2576152b16157c8565b5b8060405250919050565b600067ffffffffffffffff8211156152d7576152d66157c8565b5b602082029050602081019050919050565b600067ffffffffffffffff821115615303576153026157c8565b5b601f19601f8301169050602081019050919050565b6000819050602082019050919050565b60008190508160005260206000209050919050565b6000819050602082019050919050565b6000819050602082019050919050565b60008190508160005260206000209050919050565b6000819050602082019050919050565b60008190508160005260206000209050919050565b600081519050919050565b600081549050919050565b600081519050919050565b600081519050919050565b600081549050919050565b600081519050919050565b600081519050919050565b6000602082019050919050565b6000600182019050919050565b6000602082019050919050565b6000602082019050919050565b6000600182019050919050565b6000602082019050919050565b600082825260208201905092915050565b600082825260208201905092915050565b600082825260208201905092915050565b600082825260208201905092915050565b600082825260208201905092915050565b600082825260208201905092915050565b600082825260208201905092915050565b600082825260208201905092915050565b60006154c5826155d1565b91506154d0836155d1565b9250827fffffffffffffffffffffffffffffffffffffffffffffffffffffffffffffffff038211156155055761550461573b565b5b828201905092915050565b600073ffffffffffffffffffffffffffffffffffffffff82169050919050565b600060ff82169050919050565b6000819050919050565b6000615552826155b1565b9050919050565b60008115159050919050565b600081905061557382615828565b919050565b60008190506155868261583c565b919050565b600081905061559982615850565b919050565b60008190506155ac82615864565b919050565b600073ffffffffffffffffffffffffffffffffffffffff82169050919050565b6000819050919050565b600060ff82169050919050565b60006155f382615565565b9050919050565b600061560582615578565b9050919050565b60006156178261558b565b9050919050565b60006156298261559e565b9050919050565b82818337600083830152505050565b60005b8381101561565d578082015181840152602081019050615642565b8381111561566c576000848401525b50505050565b6000600282049050600182168061568a57607f821691505b6020821081141561569e5761569d615799565b5b50919050565b60006156b76156b28361581b565b615510565b9050919050565b60006156d16156cc8361581b565b615530565b9050919050565b60006156eb6156e68361581b565b61553d565b9050919050565b60006156fd826155d1565b91507fffffffffffffffffffffffffffffffffffffffffffffffffffffffffffffffff8214156157305761572f61573b565b5b600182019050919050565b7f4e487b7100000000000000000000000000000000000000000000000000000000600052601160045260246000fd5b7f4e487b7100000000000000000000000000000000000000000000000000000000600052602160045260246000fd5b7f4e487b7100000000000000000000000000000000000000000000000000000000600052602260045260246000fd5b7f4e487b7100000000000000000000000000000000000000000000000000000000600052604160045260246000fd5b600061580382546156a4565b9050919050565b6000601f19601f8301169050919050565b60008160001c9050919050565b600881106158395761583861576a565b5b50565b6002811061584d5761584c61576a565b5b50565b600381106158615761586061576a565b5b50565b602881106158755761587461576a565b5b50565b61588181615547565b811461588c57600080fd5b50565b6008811061589c57600080fd5b50565b600381106158ac57600080fd5b50565b602881106158bc57600080fd5b50565b6158c8816155d1565b81146158d357600080fd5b5056fea2646970667358221220762057e95925947746f1baf04301b96d0fc849c010e2c56d765f3dbf6b081b2f64736f6c63430008000033",
  "immutableReferences": {},
  "source": "// SPDX-License-Identifier: MIT\npragma solidity ^0.8.0;\n\nimport \"./BlindDateValues.sol\";\nimport \"@openzeppelin/contracts/token/ERC20/ERC20.sol\";\n// import \"@openzeppelin/contracts/security/Pausable.sol\";\n// import \"@openzeppelin/contracts/access/AccessControl.sol\";\n\n// Pausable, AccessControl\ncontract BlindDate is ERC20, BlindDateValues {\n    // bytes32 public constant PAUSER_ROLE = keccak256(\"PAUSER_ROLE\");\n    constructor() ERC20(\"BlindDate\", \"BDAT\") {\n        // _setupRole(DEFAULT_ADMIN_ROLE, msg.sender);\n        // _setupRole(PAUSER_ROLE, msg.sender);\n        _mint(msg.sender, 100000 * 10 ** decimals());\n    }\n\n    address public owner = msg.sender;\n    \n    uint disputeMaxCount = 3;\n    uint countryCodeMaxLength = 3;\n    uint valuesMaxCount = 5;\n    uint messageMaxLength = 140;\n\n    function _beforeTokenTransfer(address from, address to, uint256 amount)\n        internal\n        // whenNotPaused\n        override\n    {\n        super._beforeTokenTransfer(from, to, amount);\n    }\n\n    modifier isOwner () { \n        require (msg.sender == owner, \"not owner\"); \n        _;\n    }\n    modifier isActive () { \n        require (Profiles[msg.sender].active == true, \"not active\"); \n        _;\n    }\n    modifier profileAlreadyExists () { \n        require (Profiles[msg.sender].active || Profiles[msg.sender].active == false, \"profile already exists\"); \n        _;\n    }\n    modifier paidEnough(uint _price) { \n        require(msg.value >= _price, \"low balance\"); \n        _;\n    }\n    modifier valuesLength (Values[] memory values) { \n        require(values.length <= valuesMaxCount, \"incorrect values\");\n        _;\n    }\n    modifier messageLength (string memory _message) { \n        require(bytes(_message).length <= messageMaxLength, \"message length too long\");\n        _;\n    }\n    // countryCode\n    modifier countryCodeLength (string memory countryCode) {\n        require(bytes(countryCode).length == countryCodeMaxLength, \"incorrect length of country code\");\n        _;\n    }\n    modifier contactAvailable(address dateAddress) { \n        require(Profiles[dateAddress].active == true, \"no contact found\");\n        _;\n    }\n    modifier dateIsActive(uint dateIndex) {\n        require(Dates[dateIndex].state == DateStages.active, \"not authorized\");\n        _;\n    }\n    modifier canReactivateAccount() {\n        require(owner == msg.sender || Profiles[msg.sender].disputeCount < disputeMaxCount, \"not authorized.\");\n        _;\n    }\n    modifier haveDatedUser(address datesAddress, uint dateIdCounterIndex) {\n        require(true);\n        _;\n    }\n    modifier ownerOrProfileOwner(address addr) {\n        require(Profiles[msg.sender].addr == msg.sender || msg.sender == owner);\n        _;\n    }\n    \n    event dateCreated(Date date);\n    event profileCreated();\n    event endDateSent(Date date);\n    event messageSent(Date date);\n    event disputeSent(address userAddress, uint count);\n    event reactivatedAccount(address userAddress);\n    event deactivatedAccount(address userAddress);\n    \n    mapping (address => Profile) public Profiles;\n    \n    mapping (uint => Date) public Dates;\n    \n    /// @notice Add a new dating profile\n    /// @param nftImage url to NFT image\n    /// @param name alias\n    /// @param ageRange users age range \n    /// @param sex users sex\n    /// @param countryCode users countryCode\n    /// @param preference users preference\n    /// @param values users values\n    function addProfile(\n        address addr,\n        string memory nftImage,\n        string memory name,\n        AgeRange ageRange,\n        SexAndPreference sex,\n        string memory countryCode,\n        SexAndPreference preference,\n        Values[] memory values\n    ) external valuesLength(values) profileAlreadyExists() countryCodeLength(countryCode) {\n        uint[] memory emptyDateList;\n        Profiles[addr] = Profile({\n            addr: addr,\n            active: true,\n            nftImage: nftImage,\n            name: name,\n            ageRange: ageRange,\n            sex: sex, \n            countryCode: countryCode,\n            preference: preference,\n            values: values,\n            disputeCount: 0,\n            dates: emptyDateList\n        });\n        profilesArray.push(msg.sender);\n        emit profileCreated();\n    }\n    \n    /// @notice Add a new dating profile\n    /// @param nftImage url to NFT image\n    /// @param name alias\n    /// @param ageRange users age range \n    /// @param sex users sex\n    /// @param countryCode users countryCode\n    /// @param preference users preference\n    /// @param values users values\n    function updateProfile(\n        string memory nftImage,\n        string memory name,\n        AgeRange ageRange,\n        SexAndPreference sex,\n        string memory countryCode,\n        SexAndPreference preference,\n        Values[] memory values\n    ) external valuesLength(values) ownerOrProfileOwner(msg.sender) isActive() countryCodeLength(countryCode) {\n        Profiles[msg.sender] = Profile({\n            addr: msg.sender,\n            active: Profiles[msg.sender].active,\n            nftImage: nftImage,\n            name: name,\n            ageRange: ageRange,\n            sex: sex, \n            countryCode: countryCode,\n            preference: preference,\n            values: values,\n            disputeCount: Profiles[msg.sender].disputeCount,\n            dates: Profiles[msg.sender].dates\n        });\n    }\n    \n    /// @notice start a new date\n    /// @param datesAddress users address\n    /// @param message opening line to start date\n    function addDate(address datesAddress, string memory message) external contactAvailable(datesAddress) messageLength(message) isActive() {\n      string[] memory emptyStringList;\n      address[] memory emptyAddressList;\n      Dates[dateIdCounter] = Date({\n          id: dateIdCounter,\n          party: emptyAddressList,\n          state: DateStages.active,\n          messagesList: emptyStringList,\n          messagesListSender: emptyAddressList\n        }\n      );\n      Dates[dateIdCounter].party.push(msg.sender);\n      Dates[dateIdCounter].party.push(datesAddress);\n      Dates[dateIdCounter].messagesList.push(message);\n      Dates[dateIdCounter].messagesListSender.push(msg.sender);\n      Profiles[msg.sender].dates.push(dateIdCounter);\n      Profiles[datesAddress].dates.push(dateIdCounter);\n      dateIdCounter++;\n      emit dateCreated(Dates[dateIdCounter]);\n    }\n    /// @notice end a date\n    /// @param dateIdCounterIndex index of date to stop\n    function endDate(uint dateIdCounterIndex) external isActive() {\n        Dates[dateIdCounterIndex].state = DateStages.closed;\n        emit endDateSent(Dates[dateIdCounterIndex]);\n    }\n    /// @notice end a date\n    /// @param userAddress raise dispute against this person\n    /// @param dateIdCounterIndex index to ensure this person has infact dated this person\n    function setDispute(address userAddress, uint dateIdCounterIndex) external isActive() haveDatedUser(userAddress, dateIdCounterIndex) {\n        Profiles[userAddress].disputeCount++;\n        // TODO add addresses to dispute for payout.\n        if(Profiles[userAddress].disputeCount >= disputeMaxCount) {\n            lockAccount(userAddress);\n        }\n        emit disputeSent(userAddress, Profiles[userAddress].disputeCount);\n    }\n    /// @notice lock an account can only be triggered by this smart contract\n    /// @param userAddress users address\n    function lockAccount (address userAddress) private {\n        Profiles[userAddress].active = false;\n        emit deactivatedAccount(userAddress);\n    }\n    /// @notice lock an account can only be triggered by user\n    function deactivateAccount () public {\n        Profiles[msg.sender].active = false;\n        emit deactivatedAccount(msg.sender);\n    }\n    /// @notice unlock an account can only be triggered by this smart contract\n    /// @param userAddress users address\n    function reactivateAccount (address userAddress) external canReactivateAccount() {\n        Profiles[userAddress].active = true;\n        emit reactivatedAccount(userAddress);\n    }\n    /// @notice send message to your date\n    /// @param dateIndex the index of the date to send the message\n    /// @param message the message\n    function sendMessage(uint dateIndex, string memory message) external messageLength(message) isActive() dateIsActive(dateIndex) {\n        Dates[dateIndex].messagesList.push(message);\n        Dates[dateIndex].messagesListSender.push(msg.sender);\n        emit messageSent(Dates[dateIndex]);\n    }\n    /// @notice send message to your date\n    /// @param dateIndex index of date\n    /// @return date\n    function getDate(uint dateIndex) external view returns (Date memory){\n        return Dates[dateIndex];\n    }\n    /// @notice get message \n    /// @param dateIndex index of date\n    /// @param messageIndex index of message\n    /// @return single message and sender\n    function getMessage(uint dateIndex, uint messageIndex) external view returns (string memory, address) {\n        return (Dates[dateIndex].messagesList[messageIndex], Dates[dateIndex].messagesListSender[messageIndex]);\n    }\n    /// @notice get messages \n    /// @param dateIndex index of date\n    /// @return an array of messages and their senders\n    function getMessages(uint dateIndex) public view returns (string[] memory, address[] memory) {\n        return (Dates[dateIndex].messagesList, Dates[dateIndex].messagesListSender);\n    }\n    /// @notice get profile\n    /// @param profileAddress profile address of user\n    /// @return profile\n    function getProfile(address profileAddress) external view returns (Profile memory){\n        return Profiles[profileAddress];\n    }\n    /// @notice get all date indexes\n    /// @return dates array indexes\n    function getAllProfiles () external view returns (address[] memory){\n        return profilesArray;\n    }\n    // /// @notice pause contract from use\n    // function pause() public onlyRole(PAUSER_ROLE) {\n    //     _pause();\n    // }\n    // /// @notice unpause contract for use\n    // function unpause() public onlyRole(PAUSER_ROLE) {\n    //     _unpause();\n    // }\n}\n\n   ",
  "sourcePath": "/Users/nicktaras/Documents/github/blockchain-developer-bootcamp-final-project/contracts/BlindDate.sol",
  "compiler": {
    "name": "solc",
    "version": "0.8.0+commit.c7dfd78e.Emscripten.clang"
  },
  "schemaVersion": "3.4.3",
  "updatedAt": "2021-12-19T19:43:41.427Z",
  "devdoc": {
    "kind": "dev",
    "methods": {
      "addDate(address,string)": {
        "params": {
          "datesAddress": "users address",
          "message": "opening line to start date"
        }
      },
      "addProfile(address,string,string,uint8,uint8,string,uint8,uint8[])": {
        "params": {
          "ageRange": "users age range ",
          "countryCode": "users countryCode",
          "name": "alias",
          "nftImage": "url to NFT image",
          "preference": "users preference",
          "sex": "users sex",
          "values": "users values"
        }
      },
      "allowance(address,address)": {
        "details": "See {IERC20-allowance}."
      },
      "approve(address,uint256)": {
        "details": "See {IERC20-approve}. Requirements: - `spender` cannot be the zero address."
      },
      "balanceOf(address)": {
        "details": "See {IERC20-balanceOf}."
      },
      "decimals()": {
        "details": "Returns the number of decimals used to get its user representation. For example, if `decimals` equals `2`, a balance of `505` tokens should be displayed to a user as `5.05` (`505 / 10 ** 2`). Tokens usually opt for a value of 18, imitating the relationship between Ether and Wei. This is the value {ERC20} uses, unless this function is overridden; NOTE: This information is only used for _display_ purposes: it in no way affects any of the arithmetic of the contract, including {IERC20-balanceOf} and {IERC20-transfer}."
      },
      "decreaseAllowance(address,uint256)": {
        "details": "Atomically decreases the allowance granted to `spender` by the caller. This is an alternative to {approve} that can be used as a mitigation for problems described in {IERC20-approve}. Emits an {Approval} event indicating the updated allowance. Requirements: - `spender` cannot be the zero address. - `spender` must have allowance for the caller of at least `subtractedValue`."
      },
      "endDate(uint256)": {
        "params": {
          "dateIdCounterIndex": "index of date to stop"
        }
      },
      "getAllProfiles()": {
        "returns": {
          "_0": "dates array indexes"
        }
      },
      "getDate(uint256)": {
        "params": {
          "dateIndex": "index of date"
        },
        "returns": {
          "_0": "date"
        }
      },
      "getMessage(uint256,uint256)": {
        "params": {
          "dateIndex": "index of date",
          "messageIndex": "index of message"
        },
        "returns": {
          "_0": "single message and sender"
        }
      },
      "getMessages(uint256)": {
        "params": {
          "dateIndex": "index of date"
        },
        "returns": {
          "_0": "an array of messages and their senders"
        }
      },
      "getProfile(address)": {
        "params": {
          "profileAddress": "profile address of user"
        },
        "returns": {
          "_0": "profile"
        }
      },
      "increaseAllowance(address,uint256)": {
        "details": "Atomically increases the allowance granted to `spender` by the caller. This is an alternative to {approve} that can be used as a mitigation for problems described in {IERC20-approve}. Emits an {Approval} event indicating the updated allowance. Requirements: - `spender` cannot be the zero address."
      },
      "name()": {
        "details": "Returns the name of the token."
      },
      "reactivateAccount(address)": {
        "params": {
          "userAddress": "users address"
        }
      },
      "sendMessage(uint256,string)": {
        "params": {
          "dateIndex": "the index of the date to send the message",
          "message": "the message"
        }
      },
      "setDispute(address,uint256)": {
        "params": {
          "dateIdCounterIndex": "index to ensure this person has infact dated this person",
          "userAddress": "raise dispute against this person"
        }
      },
      "symbol()": {
        "details": "Returns the symbol of the token, usually a shorter version of the name."
      },
      "totalSupply()": {
        "details": "See {IERC20-totalSupply}."
      },
      "transfer(address,uint256)": {
        "details": "See {IERC20-transfer}. Requirements: - `recipient` cannot be the zero address. - the caller must have a balance of at least `amount`."
      },
      "transferFrom(address,address,uint256)": {
        "details": "See {IERC20-transferFrom}. Emits an {Approval} event indicating the updated allowance. This is not required by the EIP. See the note at the beginning of {ERC20}. Requirements: - `sender` and `recipient` cannot be the zero address. - `sender` must have a balance of at least `amount`. - the caller must have allowance for ``sender``'s tokens of at least `amount`."
      },
      "updateProfile(string,string,uint8,uint8,string,uint8,uint8[])": {
        "params": {
          "ageRange": "users age range ",
          "countryCode": "users countryCode",
          "name": "alias",
          "nftImage": "url to NFT image",
          "preference": "users preference",
          "sex": "users sex",
          "values": "users values"
        }
      }
    },
    "version": 1
  },
  "userdoc": {
    "kind": "user",
    "methods": {
      "addDate(address,string)": {
        "notice": "start a new date"
      },
      "addProfile(address,string,string,uint8,uint8,string,uint8,uint8[])": {
        "notice": "Add a new dating profile"
      },
      "deactivateAccount()": {
        "notice": "lock an account can only be triggered by user"
      },
      "endDate(uint256)": {
        "notice": "end a date"
      },
      "getAllProfiles()": {
        "notice": "get all date indexes"
      },
      "getDate(uint256)": {
        "notice": "send message to your date"
      },
      "getMessage(uint256,uint256)": {
        "notice": "get message "
      },
      "getMessages(uint256)": {
        "notice": "get messages "
      },
      "getProfile(address)": {
        "notice": "get profile"
      },
      "reactivateAccount(address)": {
        "notice": "unlock an account can only be triggered by this smart contract"
      },
      "sendMessage(uint256,string)": {
        "notice": "send message to your date"
      },
      "setDispute(address,uint256)": {
        "notice": "end a date"
      },
      "updateProfile(string,string,uint8,uint8,string,uint8,uint8[])": {
        "notice": "Add a new dating profile"
      }
    },
    "version": 1
  }
}