{
  "contractName": "BlindDateValues",
  "abi": [
    {
      "inputs": [],
      "name": "dateIdCounter",
      "outputs": [
        {
          "internalType": "uint256",
          "name": "",
          "type": "uint256"
        }
      ],
      "stateMutability": "view",
      "type": "function"
    },
    {
      "inputs": [
        {
          "internalType": "uint256",
          "name": "",
          "type": "uint256"
        }
      ],
      "name": "profilesArray",
      "outputs": [
        {
          "internalType": "address",
          "name": "",
          "type": "address"
        }
      ],
      "stateMutability": "view",
      "type": "function"
    }
  ],
  "bytecode": "0x6080604052600060015534801561001557600080fd5b506101e9806100256000396000f3fe608060405234801561001057600080fd5b50600436106100365760003560e01c8063cbe88cd91461003b578063e252839714610059575b600080fd5b610043610089565b6040516100509190610145565b60405180910390f35b610073600480360381019061006e91906100e3565b61008f565b604051610080919061012a565b60405180910390f35b60015481565b6000818154811061009f57600080fd5b906000526020600020016000915054906101000a900473ffffffffffffffffffffffffffffffffffffffff1681565b6000813590506100dd8161019c565b92915050565b6000602082840312156100f557600080fd5b6000610103848285016100ce565b91505092915050565b61011581610160565b82525050565b61012481610192565b82525050565b600060208201905061013f600083018461010c565b92915050565b600060208201905061015a600083018461011b565b92915050565b600061016b82610172565b9050919050565b600073ffffffffffffffffffffffffffffffffffffffff82169050919050565b6000819050919050565b6101a581610192565b81146101b057600080fd5b5056fea2646970667358221220259ae0d64dc6c58868fa6898c756194c749c696c7391877e583246831cb8d33464736f6c63430008000033",
  "immutableReferences": {},
  "source": "// SPDX-License-Identifier: MIT\npragma solidity ^0.8.0;\n\ncontract BlindDateValues {\n\n   enum DateStages {\n      active,\n      closed\n   }\n   enum SexAndPreference {\n      male,\n      female,\n      either\n   }\n   enum AgeRange {\n      twenties,\n      thirties,\n      fourties,\n      fifties,\n      sixties,\n      seventies,\n      eightees,\n      nineties\n   }\n   enum Values {\n      Forgiveness,\n      Friendship,\n      Laughter,\n      Joy,\n      Communication,\n      Respect,\n      Loyalty,\n      Compassion,\n      Growth,\n      Connection,\n      Balance,\n      Secure,\n      Support,\n      Reassurance,\n      Intimacy,\n      Protection,\n      Care,\n      Appreciation,\n      Ease,\n      Adventure,\n      Reciprocity,\n      Safe,\n      Openness,\n      Flow,\n      Acceptance,\n      Empowerment,\n      Empathy,\n      Admiration,\n      Understanding,\n      Authenticity,\n      Collaboration,\n      Awareness,\n      Listening,\n      Energizing,\n      PositiveThinking,\n      Creation,\n      Attraction,\n      Fun,\n      Trust,\n      Commitment\n   }\n\n   struct Profile {\n        address addr;\n        bool active;\n        string nftImage;\n        string name;\n        AgeRange ageRange;\n        SexAndPreference sex;\n        string countryCode;\n        SexAndPreference preference;\n        Values[] values;\n        uint256 disputeCount;\n        uint[] dates;\n    }\n    \n    address[] public profilesArray;\n    uint public dateIdCounter = 0;\n    \n    struct Date {\n        uint id;\n        DateStages state;\n        address[] party;\n        string[] messagesList;\n        address[] messagesListSender;\n    }\n\n}\n",
  "sourcePath": "/Users/nicktaras/Documents/github/blockchain-developer-bootcamp-final-project/contracts/BlindDateValues.sol",
  "compiler": {
    "name": "solc",
    "version": "0.8.0+commit.c7dfd78e.Emscripten.clang"
  },
  "schemaVersion": "3.4.3",
  "updatedAt": "2021-12-19T19:25:40.361Z",
  "devdoc": {
    "kind": "dev",
    "methods": {},
    "version": 1
  },
  "userdoc": {
    "kind": "user",
    "methods": {},
    "version": 1
  }
}